:020000040000FA
:1000000011EF0DF030313233343536373839414263
:100010004344454603A6681E7D107E7E5F1CB8F2F1
:10002000470C7B744B148B7566510B8C76744B1498
:10003000AAD60F9CBAF66E3FDD38D502809B826D42
:100040005813A4ABB5C910A2C60A7F5D1991A0A32D
:10005000CEEB3EC9F16042E74CFB746A562EBFDD21
:1000600038D3058892A6CEFF5D38D1CFEF58CB6547
:1000700048F03585A9B28F5EF38094977E75978797
:100080007313B08A69D40ADEC1795936DB9DD6B8BC
:10009000156FCE3C72324588DF6CA56DE8769614FC
:1000A0007420DCF4FA376A2732E329BFC4C7069DFF
:1000B00058E7877C2E9F6E49075D236454836ECB7F
:1000C000B777F72B6E0F2E6612605565FC43B35859
:1000D000735BE867044302DEB389A06D3A27796455
:1000E0005B0C169E66B18B870C5DF2B63D71DF42EC
:1000F000038A068DEF1DA8965CED31615CA134F694
:100100008C08603307003E79951B437FFEB6A6D46A
:100110009D7672BFADC015E83731A37263521D1CC6
:100120005D511BE1A9ED60323EA95028530659E20A
:10013000FCE702643921564AA5408081D55A607B8C
:100140006884F1E0B1B65BDFA81D6D6520C0A2B97F
:10015000D9BB00A6DB8B015391FEC45185B0967FBD
:10016000FD51DD1403672E751C76D36EDD9955762F
:10017000E5AB23FC4AD5C6E82ECA8AB3F68C6CB030
:10018000E9F2E79E6941EDF16DD286D87ECB5D47FD
:100190006C856A23ED204093B420C7A5C9AF031531
:1001A000AC19E52A36DF6DC58C8007CE920CD806D7
:1001B000620FDD48461A53C78A8C5D5DB4A102D335
:1001C000A9B8F3948F3FE554D41165B25E090B8151
:1001D000E375A78981396C46F6069F273BB62D5FEC
:1001E0001D4BD47B1D617489E4E3BD981BC4513B56
:1001F000A4FAE092F7BEF24DBBFFAD4F6D68C27935
:1002000040AA9B8F0C324B5F3EAB5998B3F51DACA7
:100210005EBC78D3016C64152FD871A62D45E12200
:1002200042E44E043C7DF44021B46705A8E2F37239
:10023000874C7DD91B6597F3C2E3E4C8D2DEF6EFA5
:10024000DCBB44085EE2452701B0F643E73AF6DC42
:100250009DEDF3C50CB89C983AD836EE967267E7D8
:100260008191D5050AE082D58FE8F9B0C9CF93E72F
:1002700004C5BC2B43567EE8677CE5FB49AD5E9F19
:100280002513DE6E6EE9F1EC870B5981768476B327
:1002900024AF30FD278BABD8008B9B0CD2B24E5EC7
:1002A0009D1D96010067C15F0220FD456A016058EF
:1002B00045CA4721905AC443261AD7A54AB25D2B96
:1002C0003549FBA51792211E939667A27E367ADEEA
:1002D0005FBE7A589DF878A3FAC8D517F021978C9D
:1002E00080B54B3BBDBB4121A85067F7E719801093
:1002F0008ECE04183F516B77D89E16AFECEF4816A0
:100300004D9E8538183ED42887602AF67F09866F6F
:100310009C3C3AFFABD061A2970D71947EFDB980F1
:1003200002896AB3846C2A7762BE0BF4AFAC7B7C23
:100330008ECA01BA717894FDB539A44D2F78CFCA11
:10034000920C1A99484C1196B54E4128E4A6FE4BE2
:100350007291E7D4DD9F12E62938CE45AE02B8246B
:10036000AEBDE9660862A22C2B00E223D9C448E4A2
:10037000D3ACBB34C7F0E34FB930EAA212F1302C52
:1003800036DE48F2B04C433F2E58E420E358CD31DE
:1003900022F0A22AE619905586F65579D1D7462F34
:1003A000C0DC99E8F36ADF7FEB244A1E5A75DE2F22
:1003B0005C19610353546A3B1870B64FF19C0A599B
:1003C0009D1992658C83142D448A75A9F590D26687
:1003D0004EFA690F5B0B9865C81142597FDD1B759A
:1003E00017314C7558EB58637DF2A6C26EB73F3E8D
:1003F0005E47ADB704E805F8B2CF19F3D285FE3EEB
:100400003EB162082C10070D739017FA9B560275C7
:10041000F951E0E91A7B9FB3F398B81C9CE1D535FC
:10042000AEC860481109946BD08B15BC0568D354D5
:100430008A51395C4276CED8AD8930C9051CCC943E
:100440003F0F906F722D85649AB923F90BC37C39E5
:100450000F970797DA5848330523B882E8D35389B2
:10046000AF338022840C955C67B8770C5CA25F3D4B
:10047000580F27F32FAE48BD0B6F54FB674CEA3281
:1004800027F1FAE2B0EC0B15B470F65CDD7160C3D5
:10049000C1A83265AC7A7741E5A96B1181FA348D38
:1004A000FBC1806EC4603007D48B67BDAA8C9C648E
:1004B000ACDB0B248B636FE6BCE733A44A4CA79FED
:1004C0004353D2BB8F43C73D78683FA53DCA69847B
:1004D000A6972DC07D3134551D07B15F405C93B0A8
:1004E000BC7CB0BCE712EE6B2BD34D67703A9AF22E
:1004F0003C7C81FAD7D9909181B8B1F3486A264FF4
:100500000CCEB09EFD4A3AAFAC5B3FBF445AA31934
:100510001E4BE7366AD720AED77D3BE7FF3A862EE3
:10052000D04A3EAF9F8E01BFF84FC1E86F74E145DE
:10053000D3F7046A4B9DEC332776D7C5E1B03B0E69
:1005400023ECF086D21ABF3D0462B36CB2EB170500
:10055000A60A8A7E831CB63709C60B703CB5938108
:10056000D893A05F1E08E2C6E5C972F1F1C1EDD5CE
:10057000589383F865672E0DA9F16412E64CEA15CD
:100580003F8C1AB6BFF6B9523509B0E6F7CDF1A5E2
:10059000AA81D1816FB4A9661FFC48C0B6D18B0671
:1005A0002FF6EF1F0AE6CE3A4A55BF6DF94DD40833
:1005B000454BC366199210E1178E289116BF3CEE89
:1005C000A3A6999210E1F6CCACB8650B4366F8E3AC
:1005D000E53F2489475D7843D06117BD5B645408CB
:1005E000455993F6958A4151624B51023073C78742
:1005F000C54BA2970FE8465F7E2AE13020B0FAE7AC
:10060000CE6142576E21F37AECE325C725F367A745
:1006100057400002CF1C807767BD70A119923175D9
:10062000932727B682E4EB1D7848E7A55E57EF6471
:1006300028641BF611B2039DB9180227F7BE9D5519
:10064000FC00D2C7AEAD0BC5E9424148D832CFF667
:100650000FF5BC97C6994776BD89060F630C51D438
:100660005EEA48A8A2561C7984864088417655FCEB
:10067000C2D7FDC9C7806135A74320F7EB6C66136D
:10068000B0EC02753E4BAFB95D40DAD66E2D3954F1
:10069000C29535542572E178B8EBC116580F9C9B72
:1006A000B4EA37EC3B11BAD58AA9E39800511C147F
:1006B000E04096E5E9F22122B1236078D317F87A79
:1006C000A5A8BA20D3151E32E45E1548AEA9E5B838
:1006D00033ECE8A242ACBF1084538719B45F764D67
:1006E000019D5674D95C97E788EA3ABFDC4C338A9F
:1006F00016B95BFAD842A7BB3C04277849812A5A2D
:100700007D7C23A8BAF79A9FD2663E383C75F9D112
:100710003026306E5A6EDC6A69325033479EA4A888
:100720006466F08AE4FD276F51258B4374C98EBD42
:100730008831BEEC65D2CB8D5A1348168C610B11F3
:10074000F6C666AEC3CC0CD2E19F82413F56F97328
:10075000EFDC3050CFB67FBCD0B310AB24E4ECADAF
:10076000188C392D304CC5400DF6ACD6185D96BFAF
:100770005F71759622970F02946EA6AE6D8F1ECA9A
:10078000129B2A1CCEA9EEFD128EFCED0933BAF4A1
:100790001A15F69D8716437C7857E144C9EB1F581C
:1007A0004DC149115CB211A85516F1C650E98789AF
:1007B000F6CFD89C51A7BC5B316D4D51D04CBC0DD0
:1007C000582D7B887AF98ED6404DBBBEC4E507FC18
:1007D000D97B6DA642578F02944FE42A65E2195ADD
:1007E00050E125654A60C2CDA8EC052E877B95B700
:1007F0004FA00B1B4A7F92C890EE891E10D285E451
:100800009F63C812BB4EB8CF0AEC184EE67CB333D8
:1008100026C71FD20423EA070C5F90BDA76A0F4AC0
:10082000D610013C12292E96C04DBBBEE5A783D53C
:100830006A3CE35BB8F25C6D1FA6F31224F6D63B6C
:100840001014090782E8306A99DC95019CD4683B52
:10085000CA9812AB7725157D10324598CD7ADF7195
:100860008A75C11CD46825EBBB54276F2AF7B99849
:100870000327DE24A8BB98C284FF9B51D85350DACB
:10088000F588AA872FAED6EA6BDEC8D7A728658180
:10089000E8B23B1D4F758F9F7A748EC15F9AA89DF9
:1008A000FA03A3719B376DD50BF5E1A11B016AC655
:1008B00067AAEA2C9DA4D26EFCDE2E7F9469E54ADD
:1008C000E001483C6BF71EB60B5FF92E07C5E8AE9A
:1008D000371BBC3CD8D50B919E8024F5060C0E9896
:1008E00007962D19DC5893CCFB4EEBBD0FF5AF01ED
:1008F000FAF17C438CB8563EBE774E2BF7BBB7451A
:1009000047CDCCA64C727B6A2A701307FDB89C9821
:100910003AD823675B34D5140CAB771FF83D5A9F48
:1009200092B72CAD31DE6107B36BF73815954614DD
:100930004853695266076D83718A6725200FFED779
:1009400002D76E2CD21A0A5DFD0F74E3A436079A03
:10095000DFD479BFEF59C04452879A6E1D0EEEDE88
:100960002E1AA98F3AC9BAEC99782D556B14C20684
:10097000D5FC93534D118CF8FA797CA664AE61B81E
:100980007B9456A639789AE5C7DF1863239CFA66EC
:10099000BBB75A274CD1A18322B3524935B0228329
:1009A0005912001698DDADC294F9D37B647F443EA2
:1009B0003C8B9A839C696BE4DF9FED541FE55D7A65
:1009C0000582B3DDEFFC5396B02C5AF8DF9C8B16F2
:1009D0004EDFDA4D090969500365D87370E886BFA8
:1009E000BB35CEB246CB02005BB4E2C68F2F98AFC8
:1009F000874B4845EDCC1DE658D6F250259F52C78F
:100A0000CB8A179D5BE5C8D772B752B2C498E37A18
:100A1000173EC660A797B0CF188153844CD51732C4
:100A2000031339510910E377494F6201BF8C9AE0F3
:100A3000419E897436F996862E961C4AB72B4A97A2
:100A4000BC9940A3E03DC8AD2FDF4F2CC469829F05
:100A50009B810C615CA59D8C89C02CB44A334EEB04
:100A6000A25640C0C246AF6AFC67D1805EC56D84A5
:100A700043273F5515966AA0A5DAB7FFB7756E4CA8
:100A800049919D22A346EAED9A00E232C3D6A971AC
:100A90002055A319EDF84FA7129C6687AF4EB7F00B
:100AA000DBBFEFF0F6AFEADA09FEDE385CA5A2DFC5
:100AB0009945A8E4E792AC67AA4FBF773EA24049A8
:100AC000224A1E3BAA707F95AF374BFC99E2E0BAF1
:100AD000D734CE55885B841B57C4800353C92F93EA
:100AE000044DD596E570A66E635D9D6CDB020AA988
:100AF000DA8B53DCD99AC5942C91922ADEBB8B13E6
:100B0000B9199664CCF26439B77549E986C2866230
:100B1000D924D3813549FCA0A5A0930564B41A5704
:100B2000CE0C900227C57A2B5DAE3ED5DD107C142D
:100B3000EA3A08AC724E903D3B7C862EEBD40670B0
:100B4000E6C7FB5FBD18F411A41A93C3BED9FB26F8
:100B5000482F373CD003471AF76219245CF4A89257
:100B6000207AF29E2AC595A2FBA4EA85D856B770D2
:100B7000D16030A5308270DC7A658A363F5B0CAE7E
:100B8000547CD357847B3A651881EE059B444DB85D
:100B9000DAA2A1C915D373030E43E98E15F9BEC6B7
:100BA000C58AE5C01EC2379E2A26A5A0BD245FB90E
:100BB000C1AB3448B95D98B46518F36319441B118F
:100BC00016FFDCF17908860F529873C492902B4778
:100BD00009D0436C2F20EBDCDAC5087B9442306AE5
:100BE000C7DA8CC376A7A5CC621300603158449B4A
:100BF000F56414F511C5545283D47301160EB37AFB
:100C000029693556D4EE8A17A299249CD78FDB55D3
:100C1000B53EE806E56E630E1CEC06F0E4500BE012
:100C200000D0E56E630E1CEC06F000D000D0000092
:100C3000E450E82EF6D71200E8060000E85007E07E
:100C400000D000D000D000D00000E82EFAD712006B
:100C5000D350FC0B0309D36ED3508F0B7009D36EA6
:100C60000F0EC16E0F01386B0F01396B938AF19E25
:100C7000618A93889386939093928A808A82946AF9
:100C800093948A84000EE56E180EE56E140EE56EE0
:100C90007CEC0EF0030EE12681B80FD081B60DD0AA
:100CA000010E0001626F000EE56E180EE56E3C0E3F
:100CB000E56E7CEC0EF0030EE126949E9498949CD5
:100CC000949AB1EC0FF0899689865A0EE56E3A0E29
:100CD000E56EB3EC0EF0E652E652C80E09EC06F0F3
:100CE000020EE56EE3EC0EF0E652030EE56EE3EC69
:100CF0000EF0E652040EE56EE3EC0EF0E652050E41
:100D0000E56EE3EC0EF0E652060EE56EE3EC0EF057
:100D1000E652000EE56E170EE56E3A0EE56E7CECBF
:100D20000EF0030EE12642EC0CF0000EE56AE3EC57
:100D30000EF0006EE652330A01E0F3D03F0EE56E8E
:100D4000E3EC0EF0016EE6520050011A0150FF0A6A
:100D500001E0DCD0150EE56E130EE56EB3EC0EF07F
:100D6000E652E652280E09EC06F0250EE56EE3EC9D
:100D70000EF0016EE652260EE56EE3EC0EF0026E0A
:100D8000E6520150EF0A01E0A2D00250BE0A01E093
:100D90009ED0010E0001606F200EE56EE3EC0EF0B8
:100DA000036EE652F00E03160350E56E200EE56E5C
:100DB000B3EC0EF0E652E652000EE56A59EC0FF085
:100DC0000001616FE652010E615D03E3A50E615DF6
:100DD00031E3000EE56E160EE56E9A0EE56E7CECC4
:100DE0000EF0030EE12600016151E56EF9EC0DF005
:100DF000E652000EE56E160EE56EB60EE56E7CEC64
:100E00000EF0030EE126440E0001616FE56E000E48
:100E1000E56A11EC0FF0036EE652E65203500AE168
:100E2000000EE56E160EE56ED40EE56E7CEC0EF04F
:100E3000030EE126000EE56E160EE56EFE0EE56E63
:100E40007CEC0EF0030EE12600016151E56EF9EC39
:100E50000DF0E652000EE56E170EE56E160EE56E0D
:100E60007CEC0EF0030EE12600016151E56E0F0EE1
:100E7000E56EB3EC0EF0E652E6520F0EE56EE3ECD3
:100E80000EF0036EE652000EE56E170EE56E180EBC
:100E9000E56E7CEC0EF0030EE1260350E56EF9ECF6
:100EA0000DF0E652000EE56E170EE56E160EE56EBD
:100EB0007CEC0EF0030EE126000EE56E170EE56EDB
:100EC0005A0EE56E7CEC0EF0030EE12643D0000EC8
:100ED000E56E170EE56E740EE56E7CEC0EF0030EFB
:100EE000E1260250E56EF9EC0DF0E6520150E56E98
:100EF000F9EC0DF0E652000EE56E170EE56E160EDB
:100F0000E56E7CEC0EF0030EE12624D0000EE56EBB
:100F1000170EE56E860EE56E7CEC0EF0030EE126F4
:100F200019D0000EE56E170EE56E9E0EE56E7CEC98
:100F30000EF0030EE1260050E56EF9EC0DF0E652DE
:100F4000000EE56E170EE56E160EE56E7CEC0EF0EB
:100F5000030EE1260001605102E10001626B000E08
:100F6000E56E170EE56EB80EE56E000EE56AADECA7
:100F70000DF0040EE126000EE56E170EE56EC40EB0
:100F8000E56E010EE56EADEC0DF0040EE126000EEF
:100F9000E56E170EE56ED00EE56E020EE56EADEC59
:100FA0000DF0040EE126000EE56E170EE56ED80E6C
:100FB000E56E240EE56EADEC0DF0040EE126000E9C
:100FC000E56E170EE56EE40EE56E2A0EE56EADECED
:100FD0000DF0040EE126000EE56E170EE56EEC0E28
:100FE000E56E0F0EE56EADEC0DF0040EE126000E81
:100FF000E56E170EE56EF60EE56E100EE56EADECC5
:101000000DF0040EE126000EE56E180EE56E000EE2
:10101000E56E390EE56EADEC0DF0040EE126000E26
:10102000E56E180EE56E0A0EE56E2F0EE56EADEC60
:101030000DF0040EE12600016051D8B47BD0020E01
:10104000E56EE3EC0EF0E6520001796F790E006E6A
:10105000000E016EE86A00C0E9FF01C0EAFFEFBAC6
:10106000E82A006E0050D8B44BD0790E006E000E06
:10107000016EE86A00C0E9FF01C0EAFFEFBCE82AA0
:10108000006E0050D8A43CD0790E006E000E016EA8
:10109000E86A00C0E9FF01C0EAFFEFBEE82A006E7F
:1010A0000050D8B447D0030EE56EE3EC0EF0006EAE
:1010B000E65200C070F00001716B040EE56EE3ECC7
:1010C0000EF0E652036E026A0250000170130350E4
:1010D0007113050EE56EE3EC0EF0006EE65200C0F3
:1010E00072F00001736B060EE56EE3EC0EF0E65253
:1010F000036E026A025000017213035073131AD078
:10110000000EE56E180EE56E760EE56E7CEC0EF0C8
:10111000030EE12600017951E56EF9EC0DF0E6527F
:10112000000EE56E170EE56E160EE56E7CEC0EF009
:10113000030EE126000E016E720E006E800E026E2E
:10114000000E046E700E036E800E056E00C006F079
:1011500001C007F002C008F000016251D8B4E8D025
:10116000096A00017551D8B473D000017451D8A434
:101170005CD081B82BD0010E746FA40E0001615DAC
:1011800022E2612B010E096E00C0F6FF01C0F7FFDD
:1011900002C0FAFF74EC0FF03BEC0FF00A6EF3CFD5
:1011A0000BF00A0E0A26D8B00B2A00C0F6FF01C0C9
:1011B000F7FF02C0FAFF74EC0FF00BC0F3FF0A5008
:1011C0008DEC0FF003D0010E0001636F81B640D0AB
:1011D000010E0001746F020E0001615D22E36107E0
:1011E000010E096E06C0F6FF07C0F7FF08C0FAFF40
:1011F00074EC0FF03BEC0FF0006EF3CF01F0F60E45
:101200000026D8A0010606C0F6FF07C0F7FF08C0F9
:10121000FAFF74EC0FF001C0F3FF00508DEC0FF0FB
:1012200017D0010E0001636F13D081B811D081B6C1
:101230000FD0000EE56E180EE56E580EE56E7CECD4
:101240000EF0030EE1260001626B050E0001636FD4
:10125000006A81B6002A0050010A0BE1006A81B8D9
:10126000002A0050010A05E1010E0001756F00011E
:10127000746B0950D8B46ED0000EE56E180EE56E92
:101280006A0EE56E7CEC0EF0030EE1260001615162
:10129000E56EF9EC0DF0E652000EE56E170EE56E08
:1012A000160EE56E7CEC0EF0030EE1260001615196
:1012B000E56E0F0EE56EB3EC0EF0E652E65200015D
:1012C0006151E56E000EE56A11EC0FF0006EE6521A
:1012D000E65200500AE1000EE56E160EE56ED40EE1
:1012E000E56E7CEC0EF0030EE126900E09EC06F0A4
:1012F0000F0EE56EE3EC0EF0006EE652000EE56EAA
:10130000170EE56E180EE56E7CEC0EF0030EE1266E
:101310000050E56EF9EC0DF0E652000EE56E170E8A
:10132000E56E160EE56E7CEC0EF0030EE12612D093
:10133000006A81B8002A0050010A02E18A8001D0C7
:101340008A90006A81B6002A0050010A02E18A826E
:1013500001D08A9200016351010A22E103C0F6FF25
:1013600004C0F7FF05C0FAFF74EC0FF03BEC0FF080
:10137000006EF3CF01F0EC0E0026D8A0010603C0EA
:10138000F6FF04C0F7FF05C0FAFF74EC0FF001C0D0
:10139000F3FF00508DEC0FF0020E0001636FE3D0FD
:1013A00000016351020A22E103C0F6FF04C0F7FF07
:1013B00005C0FAFF74EC0FF03BEC0FF0006EF3CFBA
:1013C00001F0280E0026D8B0012A03C0F6FF04C0A1
:1013D000F7FF05C0FAFF74EC0FF001C0F3FF0050F7
:1013E0008DEC0FF0030E0001636FBDD0000163515F
:1013F000030A22E103C0F6FF04C0F7FF05C0FAFFAD
:1014000074EC0FF03BEC0FF0006EF3CF01F0EC0E3C
:101410000026D8A0010603C0F6FF04C0F7FF05C0F0
:10142000FAFF74EC0FF001C0F3FF00508DEC0FF0E9
:10143000040E0001636F97D000016351040A03E1B9
:101440000001636B90D000016351050A01E040D0B8
:1014500003C0F6FF04C0F7FF05C0FAFF74EC0FF0FD
:101460003BEC0FF0006EF3CF01F0640E0026D8B015
:10147000012A03C0F6FF04C0F7FF05C0FAFF74ECB1
:101480000FF001C0F3FF00508DEC0FF006C0F6FF27
:1014900007C0F7FF08C0FAFF74EC0FF03BEC0FF049
:1014A000006EF3CF01F0640E0026D8B0012A06C00A
:1014B000F6FF07C0F7FF08C0FAFF74EC0FF001C099
:1014C000F3FF00508DEC0FF0060E0001636F4BD060
:1014D00000016351060A01E040D003C0F6FF04C0DA
:1014E000F7FF05C0FAFF74EC0FF03BEC0FF0006E55
:1014F000F3CF01F0640E0026D8B0012A03C0F6FF36
:1015000004C0F7FF05C0FAFF74EC0FF001C0F3FF51
:1015100000508DEC0FF006C0F6FF07C0F7FF08C0C3
:10152000FAFF74EC0FF03BEC0FF0006EF3CF01F01C
:101530009C0E0026D8A0010606C0F6FF07C0F7FFE4
:1015400008C0FAFF74EC0FF001C0F3FF00508DECFF
:101550000FF0070E0001636F06D000016351070A08
:1015600002E10001636B00017151701106E100019D
:1015700073517211D8B41BEF08F000017051006E66
:101580007151800F800F02E1010E005C0BE3FF0E32
:1015900000017027712300017651006E002A030EAE
:1015A0000014766F000170517151016ED88001AE48
:1015B000D8900AE3703F01D0712B00017651006E84
:1015C000030E00260014766F00017251006E7351F5
:1015D000800F800F02E1010E005C0BE3FF0E0001A3
:1015E0007227732300017751006E002A030E001446
:1015F000776F000172517351016ED88001AED8909F
:101600000AE3723F01D0732B00017751006E030E85
:1016100000260014776F77C000F076C001F001500B
:1016200003E18B9E8B9C11D00150010A03E18B8E4C
:101630008B9C0BD00150020A03E18B8E8B8C05D062
:101640000150030A02E18B9E8B8C005003E18B98C2
:101650008B9A11D00050010A03E18B888B9A0BD032
:101660000050020A03E18B888B8A05D00050030AE0
:1016700002E18B988B8A0001635108E1E56A960EBE
:10168000E56E44EC0EF0E652E6526DD7100E09EC12
:1016900006F069D7120089961200496E76616C696E
:1016A000642076616C756520696E20454550524F07
:1016B0004D20307800002E20736176696E672064BB
:1016C000656661756C742076616C75652030783460
:1016D000340A000043616E27742073746F726520B2
:1016E00063616C6962726174696F6E2076616C759A
:1016F0006520696E20454550524F4D2E0A005365B6
:101700007474696E67205859207265736F6C7574B4
:10171000696F6E3A20000A005859207265736F6C29
:101720007574696F6E20726561642066726F6D20DA
:1017300041444E533A203078000041444E533938EA
:1017400030302055706C6F6164696E672066697215
:101750006D776172652E2E2E0A004F707469636179
:101760006C204368697020496E697469616C697A9C
:1017700065640A0053524F4D2043524320657272F4
:101780006F723A30780050726F6475637420494408
:101790002074657374206661696C65640A00496E23
:1017A00076616C69642050726F647563742049447B
:1017B0003A003A203078000050726F6475637420EC
:1017C000494400005265766973696F6E2049440090
:1017D0004D6F74696F6E00004F627365727661744D
:1017E000696F6E0053524F4D20494400436F6E663F
:1017F000696720490000436F6E66696720494900A8
:10180000436F6E66696720495600436F6E6669676D
:1018100020560000416D696761204C61736572203C
:101820004D6F7573652064726976657220322E3053
:101830002062792067707337390A000043616C6950
:1018400062726174696F6E204F4E0A0044656D6F5D
:10185000207068617365200043616C696272617415
:10186000696F6E204F46460A00004E657720585932
:10187000205265733A004572726F723A6D6F7469E7
:101880006F6E3D0000C0E5FF01C0E5FF02C0E5FF4F
:1018900003C0E5FF04C0E5FF020EE56E390EE56EFC
:1018A000B3EC0EF0E652E6521D0EE56E130EE56E39
:1018B000B3EC0EF0E652E652280E09EC06F0180ED4
:1018C000E56E130EE56EB3EC0EF0E652E652E56AF5
:1018D000640EE56E44EC0EF0E652E6528996E20E96
:1018E000E56E60EC0DF0E652E56A0F0EE56E44EC35
:1018F0000EF0E652E652006A016A0050026E015094
:10190000036E0B0E035C02E1FE0E025C21E2140E7C
:101910000024026E000E0120036E046A000E0422F1
:1019200002C0F6FF03C0F7FF04C0F8FF0900F5CFBF
:1019300002F00250E56E60EC0DF0E652E56A0F0E23
:10194000E56E44EC0EF0E652E652004A012AD5D785
:10195000E56A0A0EE56E44EC0EF0E652E652898620
:10196000E56AC80EE56E44EC0EF0E652E652E4CFAE
:1019700004F0E4CF03F0E4CF02F0E4CF01F0E4CFD1
:1019800000F01200D9CFE5FFE1CFD9FF00C0E5FF9D
:1019900001C0E5FF02C0E5FF03C0E5FF020EDBCF9B
:1019A00000F08A94270E1CEC06F0000000000000F6
:1019B0000000000000000000016A080E015C1DE24A
:1019C0000050010B04E0010E026E036A02D0026AAD
:1019D000036A0250010BE844E844F46E8A50FB0BA2
:1019E000F4108A6ED8900032270E1CEC06F000002E
:1019F000000000000000012AE0D7010E1CEC06F0F8
:101A0000000000008A84240E1CEC06F0E4CF03F0F2
:101A1000E4CF02F0E4CF01F0E4CF00F0E4CFD9FF4F
:101A2000120011EEFFF021EEFFF0F86AA68EA69CE0
:101A3000700EF66E1F0EF76E000EF86E0900F5CFF1
:101A400005F00900F5CF06F034D00900F5CF00F01D
:101A50000900F5CF01F00900F5CF02F009000900F7
:101A6000F5CFE9FF0900F5CFEAFF090009000900F9
:101A7000F5CF03F00900F5CF04F009000900F6CF17
:101A800007F0F7CF08F0F8CF09F000C0F6FF01C06B
:101A9000F7FF02C0F8FF03D00900F5CFEEFF030601
:101AA000FBE20406F9E207C0F6FF08C0F7FF09C031
:101AB000F8FF0506CAE20606C8E228EC06F0FFD7E2
:101AC000D9CFE5FFE1CFD9FF00C0E5FF01C0E5FFB9
:101AD00002C0E5FF03C0E5FF04C0E5FF05C0E5FF68
:101AE000020EDBCF00F0016A080E026E025025E004
:101AF00089920050800B04E0010E036E046A02D04C
:101B0000036A046A0350010BF46E8950FE0BF41053
:101B1000896ED89000360144FE0B036E80B403D06A
:101B2000046A056A03D0010E046E056A04500310AE
:101B3000016E898200000206D9D70150E4CF05F07A
:101B4000E4CF04F0E4CF03F0E4CF02F0E4CF01F0FF
:101B5000E4CF00F0E4CFD9FF1200D9CFE5FFE1CF09
:101B6000D9FF00C0E5FF01C0E5FF02C0E5FF03C0EB
:101B7000E5FF020EDBCF00F0030EDBCF01F0040E19
:101B8000DBCF02F0050EDBCF03F00050E56EE3EC97
:101B90000EF0006EE6520350E56E0250E56E015005
:101BA000E56E7CEC0EF0030EE126000EE56E170EDE
:101BB000E56EB20EE56E7CEC0EF0030EE1260050F1
:101BC000E56EF9EC0DF0E652000EE56E170EE56ECF
:101BD000160EE56E7CEC0EF0030EE126E4CF03F06A
:101BE000E4CF02F0E4CF01F0E4CF00F0E4CFD9FF7E
:101BF0001200D9CFE5FFE1CFD9FF00C0E5FF01C05A
:101C0000E5FF02C0E5FF03C0E5FF020EDBCF00F0F9
:101C100000380F0B016E026A036A040E0126000EE3
:101C20000222000E032201C0F6FF02C0F7FF03C02C
:101C3000F8FF0900F5CF01F00150E56EC2EC0CF0A1
:101C4000E652016A0F0E0016026A040E0026000E0C
:101C50000122000E022200C0F6FF01C0F7FF02C001
:101C6000F8FF0900F5CF00F00050E56EC2EC0CF073
:101C7000E652E4CF03F0E4CF02F0E4CF01F0E4CF8A
:101C800000F0E4CFD9FF1200D9CFE5FFE1CFD9FFB3
:101C900000C0E5FF01C0E5FF02C0E5FF03C0E5FFAE
:101CA000020EDBCF00F0030EDBCF01F0F60E0026B4
:101CB000D8A001060050026E0150036E0350800F41
:101CC000800F02E1010E025C0CE300000000000046
:101CD000FC0E0226D8A003060250006E0350016ECF
:101CE000E9D7E4CF03F0E4CF02F0E4CF01F0E4CF92
:101CF00000F0E4CFD9FF1200D9CFE5FFE1CFD9FF43
:101D000000C0E5FF01C0E5FF02C0E5FF03C0E5FF3D
:101D1000020EDBCF00F0030EDBCF01F0040EDBCFB1
:101D200002F000C0F6FF01C0F7FF02C0FAFF74EC3A
:101D30000FF097EC0FF0036E03500AE00350E56ECE
:101D4000C2EC0CF0E652002AECE3014A022AE9D781
:101D5000E4CF03F0E4CF02F0E4CF01F0E4CF00F0F1
:101D6000E4CFD9FF1200D9CFE5FFE1CFD9FF00C002
:101D7000E5FF01C0E5FF020EDBCF00F0030EDBCF75
:101D800001F08996008E0050E56E60EC0DF0E65291
:101D90000150E56E60EC0DF0E652E56A140EE56E5A
:101DA00044EC0EF0E652E6528986E56A640EE56E72
:101DB00044EC0EF0E652E652E4CF01F0E4CF00F03E
:101DC000E4CFD9FF1200D9CFE5FFE1CFD9FF00C0A2
:101DD000E5FF020EDBCF00F08996009E0050E56E15
:101DE00060EC0DF0E652000EE56E640EE56E44EC1C
:101DF0000EF0E652E652000EE56E60EC0DF0006E5D
:101E0000E65200008986000EE56E130EE56E44EC86
:101E10000EF0E652E6520050E4CF00F0E4CFD9FFD6
:101E20001200D9CFE5FFE1CFD9FF00C0E5FF01C027
:101E3000E5FF020EDBCF00F0030EDBCFA8FF010EA3
:101E4000016E00C0A9FFA69EA69CA684F29E550E18
:101E5000A76EAA0EA76EA682F28EA6B2FED7A6A67F
:101E600001D0016AA6940150E4CF01F0E4CF00F064
:101E7000E4CFD9FF1200FAAE04D0EE50EECFF3FF5C
:101E80001200FABCC8EF0FF00900F5500900F5CFB9
:101E9000F3FF1200F2CFE9FFF29EA684A86EA9EC30
:101EA0000FF0F3CFA8FFA9EC0FF0A694E9BEF28ED5
:101EB0001200D9CFE5FFE1CFD9FF020EDBCFA9FF9A
:101EC000A69CA69EA680A850E4CFD9FF12000000D1
:101ED0000000000000000000000000000000000002
:101EE0000000000000000000FAAE05D0F7CFEAFFC6
:101EF000F6CFE9FF1200FABCC4EF0FF0FACFF8FFFB
:101F00001200F2CFF6FFF29EA680A850A92AA68062
:101F1000A8CFF3FFF6BEF28E1200FAAE04D0EE6E3A
:101F2000F3CFEEFF1200FABCCAEF0FF01200FAAEC8
:101F300002D0EE501200FABCC6EF0FF00900F550C7
:101F40001200F2CFF6FFF29EA680A850F6BEF28EE7
:101F50001200550EA76EAA0EA76EA682A6B2FED7D5
:101F6000A92A9296928492909292898689821200EE
:101F70000100CE1E00006000000019000000F6CF36
:101F8000A9FFA69EA69C1200BFEF0FF0A1EF0FF0D5
:081F900081EF0FF04AEF0FF0A2
:020000040030CA
:0E0000000029063C00BF850003C003E003405A
:00000001FF
